{
  "_format": "hh-sol-artifact-1",
  "contractName": "AssetDiversifier",
  "sourceName": "smart contracts/contracts/AssetDiversifier.sol",
  "abi": [
    {
      "anonymous": false,
      "inputs": [
        {
          "indexed": true,
          "internalType": "address",
          "name": "user",
          "type": "address"
        },
        {
          "indexed": false,
          "internalType": "uint256",
          "name": "amount",
          "type": "uint256"
        }
      ],
      "name": "Deposited",
      "type": "event"
    },
    {
      "anonymous": false,
      "inputs": [
        {
          "indexed": true,
          "internalType": "address",
          "name": "user",
          "type": "address"
        },
        {
          "indexed": false,
          "internalType": "address[]",
          "name": "tokens",
          "type": "address[]"
        },
        {
          "indexed": false,
          "internalType": "uint256[]",
          "name": "amounts",
          "type": "uint256[]"
        }
      ],
      "name": "Diversified",
      "type": "event"
    },
    {
      "inputs": [],
      "name": "deposit",
      "outputs": [],
      "stateMutability": "payable",
      "type": "function"
    },
    {
      "inputs": [
        {
          "internalType": "address[]",
          "name": "tokens",
          "type": "address[]"
        },
        {
          "internalType": "uint256[]",
          "name": "percentages",
          "type": "uint256[]"
        }
      ],
      "name": "diversify",
      "outputs": [],
      "stateMutability": "nonpayable",
      "type": "function"
    },
    {
      "inputs": [],
      "name": "getBalance",
      "outputs": [
        {
          "internalType": "uint256",
          "name": "",
          "type": "uint256"
        }
      ],
      "stateMutability": "view",
      "type": "function"
    },
    {
      "inputs": [
        {
          "internalType": "address",
          "name": "",
          "type": "address"
        }
      ],
      "name": "userBalances",
      "outputs": [
        {
          "internalType": "uint256",
          "name": "",
          "type": "uint256"
        }
      ],
      "stateMutability": "view",
      "type": "function"
    }
  ],
  "bytecode": "0x608060405234801561001057600080fd5b50610d7c806100206000396000f3fe60806040526004361061003f5760003560e01c806312065fe01461004457806326224c641461006f578063846fe001146100ac578063d0e30db0146100d5575b600080fd5b34801561005057600080fd5b506100596100df565b6040516100669190610575565b60405180910390f35b34801561007b57600080fd5b50610096600480360381019061009191906105f8565b610125565b6040516100a39190610575565b60405180910390f35b3480156100b857600080fd5b506100d360048036038101906100ce91906106e0565b61013d565b005b6100dd610474565b005b60008060003373ffffffffffffffffffffffffffffffffffffffff1673ffffffffffffffffffffffffffffffffffffffff16815260200190815260200160002054905090565b60006020528060005260406000206000915090505481565b818190508484905014610185576040517f08c379a000000000000000000000000000000000000000000000000000000000815260040161017c906107be565b60405180910390fd5b60008060003373ffffffffffffffffffffffffffffffffffffffff1673ffffffffffffffffffffffffffffffffffffffff1681526020019081526020016000205490506000811161020b576040517f08c379a00000000000000000000000000000000000000000000000000000000081526004016102029061082a565b60405180910390fd5b6000805b848490508110156102545784848281811061022d5761022c61084a565b5b905060200201358261023f91906108a8565b9150808061024c906108dc565b91505061020f565b5060648114610298576040517f08c379a000000000000000000000000000000000000000000000000000000000815260040161028f90610970565b60405180910390fd5b60005b868690508110156103d357600060648686848181106102bd576102bc61084a565b5b90506020020135856102cf9190610990565b6102d99190610a01565b90508787838181106102ee576102ed61084a565b5b905060200201602081019061030391906105f8565b73ffffffffffffffffffffffffffffffffffffffff1663a9059cbb33836040518363ffffffff1660e01b815260040161033d929190610a41565b6020604051808303816000875af115801561035c573d6000803e3d6000fd5b505050506040513d601f19601f820116820180604052508101906103809190610aa2565b6103bf576040517f08c379a00000000000000000000000000000000000000000000000000000000081526004016103b690610b1b565b60405180910390fd5b5080806103cb906108dc565b91505061029b565b5060008060003373ffffffffffffffffffffffffffffffffffffffff1673ffffffffffffffffffffffffffffffffffffffff168152602001908152602001600020819055503373ffffffffffffffffffffffffffffffffffffffff167ffbda5fb6b731d476481830afd1b99939f30c5bd2c0b746e7929212c5db9bf04a878787876040516104649493929190610c79565b60405180910390a2505050505050565b600034116104b7576040517f08c379a00000000000000000000000000000000000000000000000000000000081526004016104ae90610d26565b60405180910390fd5b346000803373ffffffffffffffffffffffffffffffffffffffff1673ffffffffffffffffffffffffffffffffffffffff168152602001908152602001600020600082825461050591906108a8565b925050819055503373ffffffffffffffffffffffffffffffffffffffff167f2da466a7b24304f47e87fa2e1e5a81b9831ce54fec19055ce277ca2f39ba42c4346040516105529190610575565b60405180910390a2565b6000819050919050565b61056f8161055c565b82525050565b600060208201905061058a6000830184610566565b92915050565b600080fd5b600080fd5b600073ffffffffffffffffffffffffffffffffffffffff82169050919050565b60006105c58261059a565b9050919050565b6105d5816105ba565b81146105e057600080fd5b50565b6000813590506105f2816105cc565b92915050565b60006020828403121561060e5761060d610590565b5b600061061c848285016105e3565b91505092915050565b600080fd5b600080fd5b600080fd5b60008083601f84011261064a57610649610625565b5b8235905067ffffffffffffffff8111156106675761066661062a565b5b6020830191508360208202830111156106835761068261062f565b5b9250929050565b60008083601f8401126106a05761069f610625565b5b8235905067ffffffffffffffff8111156106bd576106bc61062a565b5b6020830191508360208202830111156106d9576106d861062f565b5b9250929050565b600080600080604085870312156106fa576106f9610590565b5b600085013567ffffffffffffffff81111561071857610717610595565b5b61072487828801610634565b9450945050602085013567ffffffffffffffff81111561074757610746610595565b5b6107538782880161068a565b925092505092959194509250565b600082825260208201905092915050565b7f4d69736d61746368656420617272617973000000000000000000000000000000600082015250565b60006107a8601183610761565b91506107b382610772565b602082019050919050565b600060208201905081810360008301526107d78161079b565b9050919050565b7f4e6f2066756e647320746f206469766572736966790000000000000000000000600082015250565b6000610814601583610761565b915061081f826107de565b602082019050919050565b6000602082019050818103600083015261084381610807565b9050919050565b7f4e487b7100000000000000000000000000000000000000000000000000000000600052603260045260246000fd5b7f4e487b7100000000000000000000000000000000000000000000000000000000600052601160045260246000fd5b60006108b38261055c565b91506108be8361055c565b92508282019050808211156108d6576108d5610879565b5b92915050565b60006108e78261055c565b91507fffffffffffffffffffffffffffffffffffffffffffffffffffffffffffffffff820361091957610918610879565b5b600182019050919050565b7f50657263656e7461676573206d75737420746f74616c20313030000000000000600082015250565b600061095a601a83610761565b915061096582610924565b602082019050919050565b600060208201905081810360008301526109898161094d565b9050919050565b600061099b8261055c565b91506109a68361055c565b92508282026109b48161055c565b915082820484148315176109cb576109ca610879565b5b5092915050565b7f4e487b7100000000000000000000000000000000000000000000000000000000600052601260045260246000fd5b6000610a0c8261055c565b9150610a178361055c565b925082610a2757610a266109d2565b5b828204905092915050565b610a3b816105ba565b82525050565b6000604082019050610a566000830185610a32565b610a636020830184610566565b9392505050565b60008115159050919050565b610a7f81610a6a565b8114610a8a57600080fd5b50565b600081519050610a9c81610a76565b92915050565b600060208284031215610ab857610ab7610590565b5b6000610ac684828501610a8d565b91505092915050565b7f5472616e73666572206661696c65640000000000000000000000000000000000600082015250565b6000610b05600f83610761565b9150610b1082610acf565b602082019050919050565b60006020820190508181036000830152610b3481610af8565b9050919050565b600082825260208201905092915050565b6000819050919050565b610b5f816105ba565b82525050565b6000610b718383610b56565b60208301905092915050565b6000610b8c60208401846105e3565b905092915050565b6000602082019050919050565b6000610bad8385610b3b565b9350610bb882610b4c565b8060005b85811015610bf157610bce8284610b7d565b610bd88882610b65565b9750610be383610b94565b925050600181019050610bbc565b5085925050509392505050565b600082825260208201905092915050565b600080fd5b82818337505050565b6000610c298385610bfe565b93507f07ffffffffffffffffffffffffffffffffffffffffffffffffffffffffffffff831115610c5c57610c5b610c0f565b5b602083029250610c6d838584610c14565b82840190509392505050565b60006040820190508181036000830152610c94818688610ba1565b90508181036020830152610ca9818486610c1d565b905095945050505050565b7f4465706f73697420616d6f756e74206d7573742062652067726561746572207460008201527f68616e207a65726f000000000000000000000000000000000000000000000000602082015250565b6000610d10602883610761565b9150610d1b82610cb4565b604082019050919050565b60006020820190508181036000830152610d3f81610d03565b905091905056fea2646970667358221220d9520802c82c0274d24ef7fd87423052f71953384cadb4e80669459fa9a4481a64736f6c63430008140033",
  "linkReferences": {},
  "deployedLinkReferences": {}
}