{"smart contracts/contracts/AssetDiversifier.sol":{"AssetDiversifier":{"abi":[{"anonymous":false,"inputs":[{"indexed":true,"internalType":"address","name":"user","type":"address"},{"indexed":false,"internalType":"uint256","name":"amount","type":"uint256"}],"name":"Deposited","type":"event"},{"anonymous":false,"inputs":[{"indexed":true,"internalType":"address","name":"user","type":"address"},{"indexed":false,"internalType":"address[]","name":"tokens","type":"address[]"},{"indexed":false,"internalType":"uint256[]","name":"amounts","type":"uint256[]"}],"name":"Diversified","type":"event"},{"inputs":[],"name":"deposit","outputs":[],"stateMutability":"payable","type":"function"},{"inputs":[{"internalType":"address[]","name":"tokens","type":"address[]"},{"internalType":"uint256[]","name":"percentages","type":"uint256[]"}],"name":"diversify","outputs":[],"stateMutability":"nonpayable","type":"function"},{"inputs":[],"name":"getBalance","outputs":[{"internalType":"uint256","name":"","type":"uint256"}],"stateMutability":"view","type":"function"},{"inputs":[{"internalType":"address","name":"","type":"address"}],"name":"userBalances","outputs":[{"internalType":"uint256","name":"","type":"uint256"}],"stateMutability":"view","type":"function"}],"evm":{"bytecode":{"linkReferences":{},"object":"608060405234801561001057600080fd5b50610d7c806100206000396000f3fe60806040526004361061003f5760003560e01c806312065fe01461004457806326224c641461006f578063846fe001146100ac578063d0e30db0146100d5575b600080fd5b34801561005057600080fd5b506100596100df565b6040516100669190610575565b60405180910390f35b34801561007b57600080fd5b50610096600480360381019061009191906105f8565b610125565b6040516100a39190610575565b60405180910390f35b3480156100b857600080fd5b506100d360048036038101906100ce91906106e0565b61013d565b005b6100dd610474565b005b60008060003373ffffffffffffffffffffffffffffffffffffffff1673ffffffffffffffffffffffffffffffffffffffff16815260200190815260200160002054905090565b60006020528060005260406000206000915090505481565b818190508484905014610185576040517f08c379a000000000000000000000000000000000000000000000000000000000815260040161017c906107be565b60405180910390fd5b60008060003373ffffffffffffffffffffffffffffffffffffffff1673ffffffffffffffffffffffffffffffffffffffff1681526020019081526020016000205490506000811161020b576040517f08c379a00000000000000000000000000000000000000000000000000000000081526004016102029061082a565b60405180910390fd5b6000805b848490508110156102545784848281811061022d5761022c61084a565b5b905060200201358261023f91906108a8565b9150808061024c906108dc565b91505061020f565b5060648114610298576040517f08c379a000000000000000000000000000000000000000000000000000000000815260040161028f90610970565b60405180910390fd5b60005b868690508110156103d357600060648686848181106102bd576102bc61084a565b5b90506020020135856102cf9190610990565b6102d99190610a01565b90508787838181106102ee576102ed61084a565b5b905060200201602081019061030391906105f8565b73ffffffffffffffffffffffffffffffffffffffff1663a9059cbb33836040518363ffffffff1660e01b815260040161033d929190610a41565b6020604051808303816000875af115801561035c573d6000803e3d6000fd5b505050506040513d601f19601f820116820180604052508101906103809190610aa2565b6103bf576040517f08c379a00000000000000000000000000000000000000000000000000000000081526004016103b690610b1b565b60405180910390fd5b5080806103cb906108dc565b91505061029b565b5060008060003373ffffffffffffffffffffffffffffffffffffffff1673ffffffffffffffffffffffffffffffffffffffff168152602001908152602001600020819055503373ffffffffffffffffffffffffffffffffffffffff167ffbda5fb6b731d476481830afd1b99939f30c5bd2c0b746e7929212c5db9bf04a878787876040516104649493929190610c79565b60405180910390a2505050505050565b600034116104b7576040517f08c379a00000000000000000000000000000000000000000000000000000000081526004016104ae90610d26565b60405180910390fd5b346000803373ffffffffffffffffffffffffffffffffffffffff1673ffffffffffffffffffffffffffffffffffffffff168152602001908152602001600020600082825461050591906108a8565b925050819055503373ffffffffffffffffffffffffffffffffffffffff167f2da466a7b24304f47e87fa2e1e5a81b9831ce54fec19055ce277ca2f39ba42c4346040516105529190610575565b60405180910390a2565b6000819050919050565b61056f8161055c565b82525050565b600060208201905061058a6000830184610566565b92915050565b600080fd5b600080fd5b600073ffffffffffffffffffffffffffffffffffffffff82169050919050565b60006105c58261059a565b9050919050565b6105d5816105ba565b81146105e057600080fd5b50565b6000813590506105f2816105cc565b92915050565b60006020828403121561060e5761060d610590565b5b600061061c848285016105e3565b91505092915050565b600080fd5b600080fd5b600080fd5b60008083601f84011261064a57610649610625565b5b8235905067ffffffffffffffff8111156106675761066661062a565b5b6020830191508360208202830111156106835761068261062f565b5b9250929050565b60008083601f8401126106a05761069f610625565b5b8235905067ffffffffffffffff8111156106bd576106bc61062a565b5b6020830191508360208202830111156106d9576106d861062f565b5b9250929050565b600080600080604085870312156106fa576106f9610590565b5b600085013567ffffffffffffffff81111561071857610717610595565b5b61072487828801610634565b9450945050602085013567ffffffffffffffff81111561074757610746610595565b5b6107538782880161068a565b925092505092959194509250565b600082825260208201905092915050565b7f4d69736d61746368656420617272617973000000000000000000000000000000600082015250565b60006107a8601183610761565b91506107b382610772565b602082019050919050565b600060208201905081810360008301526107d78161079b565b9050919050565b7f4e6f2066756e647320746f206469766572736966790000000000000000000000600082015250565b6000610814601583610761565b915061081f826107de565b602082019050919050565b6000602082019050818103600083015261084381610807565b9050919050565b7f4e487b7100000000000000000000000000000000000000000000000000000000600052603260045260246000fd5b7f4e487b7100000000000000000000000000000000000000000000000000000000600052601160045260246000fd5b60006108b38261055c565b91506108be8361055c565b92508282019050808211156108d6576108d5610879565b5b92915050565b60006108e78261055c565b91507fffffffffffffffffffffffffffffffffffffffffffffffffffffffffffffffff820361091957610918610879565b5b600182019050919050565b7f50657263656e7461676573206d75737420746f74616c20313030000000000000600082015250565b600061095a601a83610761565b915061096582610924565b602082019050919050565b600060208201905081810360008301526109898161094d565b9050919050565b600061099b8261055c565b91506109a68361055c565b92508282026109b48161055c565b915082820484148315176109cb576109ca610879565b5b5092915050565b7f4e487b7100000000000000000000000000000000000000000000000000000000600052601260045260246000fd5b6000610a0c8261055c565b9150610a178361055c565b925082610a2757610a266109d2565b5b828204905092915050565b610a3b816105ba565b82525050565b6000604082019050610a566000830185610a32565b610a636020830184610566565b9392505050565b60008115159050919050565b610a7f81610a6a565b8114610a8a57600080fd5b50565b600081519050610a9c81610a76565b92915050565b600060208284031215610ab857610ab7610590565b5b6000610ac684828501610a8d565b91505092915050565b7f5472616e73666572206661696c65640000000000000000000000000000000000600082015250565b6000610b05600f83610761565b9150610b1082610acf565b602082019050919050565b60006020820190508181036000830152610b3481610af8565b9050919050565b600082825260208201905092915050565b6000819050919050565b610b5f816105ba565b82525050565b6000610b718383610b56565b60208301905092915050565b6000610b8c60208401846105e3565b905092915050565b6000602082019050919050565b6000610bad8385610b3b565b9350610bb882610b4c565b8060005b85811015610bf157610bce8284610b7d565b610bd88882610b65565b9750610be383610b94565b925050600181019050610bbc565b5085925050509392505050565b600082825260208201905092915050565b600080fd5b82818337505050565b6000610c298385610bfe565b93507f07ffffffffffffffffffffffffffffffffffffffffffffffffffffffffffffff831115610c5c57610c5b610c0f565b5b602083029250610c6d838584610c14565b82840190509392505050565b60006040820190508181036000830152610c94818688610ba1565b90508181036020830152610ca9818486610c1d565b905095945050505050565b7f4465706f73697420616d6f756e74206d7573742062652067726561746572207460008201527f68616e207a65726f000000000000000000000000000000000000000000000000602082015250565b6000610d10602883610761565b9150610d1b82610cb4565b604082019050919050565b60006020820190508181036000830152610d3f81610d03565b905091905056fea2646970667358221220d9520802c82c0274d24ef7fd87423052f71953384cadb4e80669459fa9a4481a64736f6c63430008140033","opcodes":"PUSH1 0x80 PUSH1 0x40 MSTORE CALLVALUE DUP1 ISZERO PUSH2 0x10 JUMPI PUSH1 0x0 DUP1 REVERT JUMPDEST POP PUSH2 0xD7C DUP1 PUSH2 0x20 PUSH1 0x0 CODECOPY PUSH1 0x0 RETURN INVALID PUSH1 0x80 PUSH1 0x40 MSTORE PUSH1 0x4 CALLDATASIZE LT PUSH2 0x3F JUMPI PUSH1 0x0 CALLDATALOAD PUSH1 0xE0 SHR DUP1 PUSH4 0x12065FE0 EQ PUSH2 0x44 JUMPI DUP1 PUSH4 0x26224C64 EQ PUSH2 0x6F JUMPI DUP1 PUSH4 0x846FE001 EQ PUSH2 0xAC JUMPI DUP1 PUSH4 0xD0E30DB0 EQ PUSH2 0xD5 JUMPI JUMPDEST PUSH1 0x0 DUP1 REVERT JUMPDEST CALLVALUE DUP1 ISZERO PUSH2 0x50 JUMPI PUSH1 0x0 DUP1 REVERT JUMPDEST POP PUSH2 0x59 PUSH2 0xDF JUMP JUMPDEST PUSH1 0x40 MLOAD PUSH2 0x66 SWAP2 SWAP1 PUSH2 0x575 JUMP JUMPDEST PUSH1 0x40 MLOAD DUP1 SWAP2 SUB SWAP1 RETURN JUMPDEST CALLVALUE DUP1 ISZERO PUSH2 0x7B JUMPI PUSH1 0x0 DUP1 REVERT JUMPDEST POP PUSH2 0x96 PUSH1 0x4 DUP1 CALLDATASIZE SUB DUP2 ADD SWAP1 PUSH2 0x91 SWAP2 SWAP1 PUSH2 0x5F8 JUMP JUMPDEST PUSH2 0x125 JUMP JUMPDEST PUSH1 0x40 MLOAD PUSH2 0xA3 SWAP2 SWAP1 PUSH2 0x575 JUMP JUMPDEST PUSH1 0x40 MLOAD DUP1 SWAP2 SUB SWAP1 RETURN JUMPDEST CALLVALUE DUP1 ISZERO PUSH2 0xB8 JUMPI PUSH1 0x0 DUP1 REVERT JUMPDEST POP PUSH2 0xD3 PUSH1 0x4 DUP1 CALLDATASIZE SUB DUP2 ADD SWAP1 PUSH2 0xCE SWAP2 SWAP1 PUSH2 0x6E0 JUMP JUMPDEST PUSH2 0x13D JUMP JUMPDEST STOP JUMPDEST PUSH2 0xDD PUSH2 0x474 JUMP JUMPDEST STOP JUMPDEST PUSH1 0x0 DUP1 PUSH1 0x0 CALLER PUSH20 0xFFFFFFFFFFFFFFFFFFFFFFFFFFFFFFFFFFFFFFFF AND PUSH20 0xFFFFFFFFFFFFFFFFFFFFFFFFFFFFFFFFFFFFFFFF AND DUP2 MSTORE PUSH1 0x20 ADD SWAP1 DUP2 MSTORE PUSH1 0x20 ADD PUSH1 0x0 KECCAK256 SLOAD SWAP1 POP SWAP1 JUMP JUMPDEST PUSH1 0x0 PUSH1 0x20 MSTORE DUP1 PUSH1 0x0 MSTORE PUSH1 0x40 PUSH1 0x0 KECCAK256 PUSH1 0x0 SWAP2 POP SWAP1 POP SLOAD DUP2 JUMP JUMPDEST DUP2 DUP2 SWAP1 POP DUP5 DUP5 SWAP1 POP EQ PUSH2 0x185 JUMPI PUSH1 0x40 MLOAD PUSH32 0x8C379A000000000000000000000000000000000000000000000000000000000 DUP2 MSTORE PUSH1 0x4 ADD PUSH2 0x17C SWAP1 PUSH2 0x7BE JUMP JUMPDEST PUSH1 0x40 MLOAD DUP1 SWAP2 SUB SWAP1 REVERT JUMPDEST PUSH1 0x0 DUP1 PUSH1 0x0 CALLER PUSH20 0xFFFFFFFFFFFFFFFFFFFFFFFFFFFFFFFFFFFFFFFF AND PUSH20 0xFFFFFFFFFFFFFFFFFFFFFFFFFFFFFFFFFFFFFFFF AND DUP2 MSTORE PUSH1 0x20 ADD SWAP1 DUP2 MSTORE PUSH1 0x20 ADD PUSH1 0x0 KECCAK256 SLOAD SWAP1 POP PUSH1 0x0 DUP2 GT PUSH2 0x20B JUMPI PUSH1 0x40 MLOAD PUSH32 0x8C379A000000000000000000000000000000000000000000000000000000000 DUP2 MSTORE PUSH1 0x4 ADD PUSH2 0x202 SWAP1 PUSH2 0x82A JUMP JUMPDEST PUSH1 0x40 MLOAD DUP1 SWAP2 SUB SWAP1 REVERT JUMPDEST PUSH1 0x0 DUP1 JUMPDEST DUP5 DUP5 SWAP1 POP DUP2 LT ISZERO PUSH2 0x254 JUMPI DUP5 DUP5 DUP3 DUP2 DUP2 LT PUSH2 0x22D JUMPI PUSH2 0x22C PUSH2 0x84A JUMP JUMPDEST JUMPDEST SWAP1 POP PUSH1 0x20 MUL ADD CALLDATALOAD DUP3 PUSH2 0x23F SWAP2 SWAP1 PUSH2 0x8A8 JUMP JUMPDEST SWAP2 POP DUP1 DUP1 PUSH2 0x24C SWAP1 PUSH2 0x8DC JUMP JUMPDEST SWAP2 POP POP PUSH2 0x20F JUMP JUMPDEST POP PUSH1 0x64 DUP2 EQ PUSH2 0x298 JUMPI PUSH1 0x40 MLOAD PUSH32 0x8C379A000000000000000000000000000000000000000000000000000000000 DUP2 MSTORE PUSH1 0x4 ADD PUSH2 0x28F SWAP1 PUSH2 0x970 JUMP JUMPDEST PUSH1 0x40 MLOAD DUP1 SWAP2 SUB SWAP1 REVERT JUMPDEST PUSH1 0x0 JUMPDEST DUP7 DUP7 SWAP1 POP DUP2 LT ISZERO PUSH2 0x3D3 JUMPI PUSH1 0x0 PUSH1 0x64 DUP7 DUP7 DUP5 DUP2 DUP2 LT PUSH2 0x2BD JUMPI PUSH2 0x2BC PUSH2 0x84A JUMP JUMPDEST JUMPDEST SWAP1 POP PUSH1 0x20 MUL ADD CALLDATALOAD DUP6 PUSH2 0x2CF SWAP2 SWAP1 PUSH2 0x990 JUMP JUMPDEST PUSH2 0x2D9 SWAP2 SWAP1 PUSH2 0xA01 JUMP JUMPDEST SWAP1 POP DUP8 DUP8 DUP4 DUP2 DUP2 LT PUSH2 0x2EE JUMPI PUSH2 0x2ED PUSH2 0x84A JUMP JUMPDEST JUMPDEST SWAP1 POP PUSH1 0x20 MUL ADD PUSH1 0x20 DUP2 ADD SWAP1 PUSH2 0x303 SWAP2 SWAP1 PUSH2 0x5F8 JUMP JUMPDEST PUSH20 0xFFFFFFFFFFFFFFFFFFFFFFFFFFFFFFFFFFFFFFFF AND PUSH4 0xA9059CBB CALLER DUP4 PUSH1 0x40 MLOAD DUP4 PUSH4 0xFFFFFFFF AND PUSH1 0xE0 SHL DUP2 MSTORE PUSH1 0x4 ADD PUSH2 0x33D SWAP3 SWAP2 SWAP1 PUSH2 0xA41 JUMP JUMPDEST PUSH1 0x20 PUSH1 0x40 MLOAD DUP1 DUP4 SUB DUP2 PUSH1 0x0 DUP8 GAS CALL ISZERO DUP1 ISZERO PUSH2 0x35C JUMPI RETURNDATASIZE PUSH1 0x0 DUP1 RETURNDATACOPY RETURNDATASIZE PUSH1 0x0 REVERT JUMPDEST POP POP POP POP PUSH1 0x40 MLOAD RETURNDATASIZE PUSH1 0x1F NOT PUSH1 0x1F DUP3 ADD AND DUP3 ADD DUP1 PUSH1 0x40 MSTORE POP DUP2 ADD SWAP1 PUSH2 0x380 SWAP2 SWAP1 PUSH2 0xAA2 JUMP JUMPDEST PUSH2 0x3BF JUMPI PUSH1 0x40 MLOAD PUSH32 0x8C379A000000000000000000000000000000000000000000000000000000000 DUP2 MSTORE PUSH1 0x4 ADD PUSH2 0x3B6 SWAP1 PUSH2 0xB1B JUMP JUMPDEST PUSH1 0x40 MLOAD DUP1 SWAP2 SUB SWAP1 REVERT JUMPDEST POP DUP1 DUP1 PUSH2 0x3CB SWAP1 PUSH2 0x8DC JUMP JUMPDEST SWAP2 POP POP PUSH2 0x29B JUMP JUMPDEST POP PUSH1 0x0 DUP1 PUSH1 0x0 CALLER PUSH20 0xFFFFFFFFFFFFFFFFFFFFFFFFFFFFFFFFFFFFFFFF AND PUSH20 0xFFFFFFFFFFFFFFFFFFFFFFFFFFFFFFFFFFFFFFFF AND DUP2 MSTORE PUSH1 0x20 ADD SWAP1 DUP2 MSTORE PUSH1 0x20 ADD PUSH1 0x0 KECCAK256 DUP2 SWAP1 SSTORE POP CALLER PUSH20 0xFFFFFFFFFFFFFFFFFFFFFFFFFFFFFFFFFFFFFFFF AND PUSH32 0xFBDA5FB6B731D476481830AFD1B99939F30C5BD2C0B746E7929212C5DB9BF04A DUP8 DUP8 DUP8 DUP8 PUSH1 0x40 MLOAD PUSH2 0x464 SWAP5 SWAP4 SWAP3 SWAP2 SWAP1 PUSH2 0xC79 JUMP JUMPDEST PUSH1 0x40 MLOAD DUP1 SWAP2 SUB SWAP1 LOG2 POP POP POP POP POP POP JUMP JUMPDEST PUSH1 0x0 CALLVALUE GT PUSH2 0x4B7 JUMPI PUSH1 0x40 MLOAD PUSH32 0x8C379A000000000000000000000000000000000000000000000000000000000 DUP2 MSTORE PUSH1 0x4 ADD PUSH2 0x4AE SWAP1 PUSH2 0xD26 JUMP JUMPDEST PUSH1 0x40 MLOAD DUP1 SWAP2 SUB SWAP1 REVERT JUMPDEST CALLVALUE PUSH1 0x0 DUP1 CALLER PUSH20 0xFFFFFFFFFFFFFFFFFFFFFFFFFFFFFFFFFFFFFFFF AND PUSH20 0xFFFFFFFFFFFFFFFFFFFFFFFFFFFFFFFFFFFFFFFF AND DUP2 MSTORE PUSH1 0x20 ADD SWAP1 DUP2 MSTORE PUSH1 0x20 ADD PUSH1 0x0 KECCAK256 PUSH1 0x0 DUP3 DUP3 SLOAD PUSH2 0x505 SWAP2 SWAP1 PUSH2 0x8A8 JUMP JUMPDEST SWAP3 POP POP DUP2 SWAP1 SSTORE POP CALLER PUSH20 0xFFFFFFFFFFFFFFFFFFFFFFFFFFFFFFFFFFFFFFFF AND PUSH32 0x2DA466A7B24304F47E87FA2E1E5A81B9831CE54FEC19055CE277CA2F39BA42C4 CALLVALUE PUSH1 0x40 MLOAD PUSH2 0x552 SWAP2 SWAP1 PUSH2 0x575 JUMP JUMPDEST PUSH1 0x40 MLOAD DUP1 SWAP2 SUB SWAP1 LOG2 JUMP JUMPDEST PUSH1 0x0 DUP2 SWAP1 POP SWAP2 SWAP1 POP JUMP JUMPDEST PUSH2 0x56F DUP2 PUSH2 0x55C JUMP JUMPDEST DUP3 MSTORE POP POP JUMP JUMPDEST PUSH1 0x0 PUSH1 0x20 DUP3 ADD SWAP1 POP PUSH2 0x58A PUSH1 0x0 DUP4 ADD DUP5 PUSH2 0x566 JUMP JUMPDEST SWAP3 SWAP2 POP POP JUMP JUMPDEST PUSH1 0x0 DUP1 REVERT JUMPDEST PUSH1 0x0 DUP1 REVERT JUMPDEST PUSH1 0x0 PUSH20 0xFFFFFFFFFFFFFFFFFFFFFFFFFFFFFFFFFFFFFFFF DUP3 AND SWAP1 POP SWAP2 SWAP1 POP JUMP JUMPDEST PUSH1 0x0 PUSH2 0x5C5 DUP3 PUSH2 0x59A JUMP JUMPDEST SWAP1 POP SWAP2 SWAP1 POP JUMP JUMPDEST PUSH2 0x5D5 DUP2 PUSH2 0x5BA JUMP JUMPDEST DUP2 EQ PUSH2 0x5E0 JUMPI PUSH1 0x0 DUP1 REVERT JUMPDEST POP JUMP JUMPDEST PUSH1 0x0 DUP2 CALLDATALOAD SWAP1 POP PUSH2 0x5F2 DUP2 PUSH2 0x5CC JUMP JUMPDEST SWAP3 SWAP2 POP POP JUMP JUMPDEST PUSH1 0x0 PUSH1 0x20 DUP3 DUP5 SUB SLT ISZERO PUSH2 0x60E JUMPI PUSH2 0x60D PUSH2 0x590 JUMP JUMPDEST JUMPDEST PUSH1 0x0 PUSH2 0x61C DUP5 DUP3 DUP6 ADD PUSH2 0x5E3 JUMP JUMPDEST SWAP2 POP POP SWAP3 SWAP2 POP POP JUMP JUMPDEST PUSH1 0x0 DUP1 REVERT JUMPDEST PUSH1 0x0 DUP1 REVERT JUMPDEST PUSH1 0x0 DUP1 REVERT JUMPDEST PUSH1 0x0 DUP1 DUP4 PUSH1 0x1F DUP5 ADD SLT PUSH2 0x64A JUMPI PUSH2 0x649 PUSH2 0x625 JUMP JUMPDEST JUMPDEST DUP3 CALLDATALOAD SWAP1 POP PUSH8 0xFFFFFFFFFFFFFFFF DUP2 GT ISZERO PUSH2 0x667 JUMPI PUSH2 0x666 PUSH2 0x62A JUMP JUMPDEST JUMPDEST PUSH1 0x20 DUP4 ADD SWAP2 POP DUP4 PUSH1 0x20 DUP3 MUL DUP4 ADD GT ISZERO PUSH2 0x683 JUMPI PUSH2 0x682 PUSH2 0x62F JUMP JUMPDEST JUMPDEST SWAP3 POP SWAP3 SWAP1 POP JUMP JUMPDEST PUSH1 0x0 DUP1 DUP4 PUSH1 0x1F DUP5 ADD SLT PUSH2 0x6A0 JUMPI PUSH2 0x69F PUSH2 0x625 JUMP JUMPDEST JUMPDEST DUP3 CALLDATALOAD SWAP1 POP PUSH8 0xFFFFFFFFFFFFFFFF DUP2 GT ISZERO PUSH2 0x6BD JUMPI PUSH2 0x6BC PUSH2 0x62A JUMP JUMPDEST JUMPDEST PUSH1 0x20 DUP4 ADD SWAP2 POP DUP4 PUSH1 0x20 DUP3 MUL DUP4 ADD GT ISZERO PUSH2 0x6D9 JUMPI PUSH2 0x6D8 PUSH2 0x62F JUMP JUMPDEST JUMPDEST SWAP3 POP SWAP3 SWAP1 POP JUMP JUMPDEST PUSH1 0x0 DUP1 PUSH1 0x0 DUP1 PUSH1 0x40 DUP6 DUP8 SUB SLT ISZERO PUSH2 0x6FA JUMPI PUSH2 0x6F9 PUSH2 0x590 JUMP JUMPDEST JUMPDEST PUSH1 0x0 DUP6 ADD CALLDATALOAD PUSH8 0xFFFFFFFFFFFFFFFF DUP2 GT ISZERO PUSH2 0x718 JUMPI PUSH2 0x717 PUSH2 0x595 JUMP JUMPDEST JUMPDEST PUSH2 0x724 DUP8 DUP3 DUP9 ADD PUSH2 0x634 JUMP JUMPDEST SWAP5 POP SWAP5 POP POP PUSH1 0x20 DUP6 ADD CALLDATALOAD PUSH8 0xFFFFFFFFFFFFFFFF DUP2 GT ISZERO PUSH2 0x747 JUMPI PUSH2 0x746 PUSH2 0x595 JUMP JUMPDEST JUMPDEST PUSH2 0x753 DUP8 DUP3 DUP9 ADD PUSH2 0x68A JUMP JUMPDEST SWAP3 POP SWAP3 POP POP SWAP3 SWAP6 SWAP2 SWAP5 POP SWAP3 POP JUMP JUMPDEST PUSH1 0x0 DUP3 DUP3 MSTORE PUSH1 0x20 DUP3 ADD SWAP1 POP SWAP3 SWAP2 POP POP JUMP JUMPDEST PUSH32 0x4D69736D61746368656420617272617973000000000000000000000000000000 PUSH1 0x0 DUP3 ADD MSTORE POP JUMP JUMPDEST PUSH1 0x0 PUSH2 0x7A8 PUSH1 0x11 DUP4 PUSH2 0x761 JUMP JUMPDEST SWAP2 POP PUSH2 0x7B3 DUP3 PUSH2 0x772 JUMP JUMPDEST PUSH1 0x20 DUP3 ADD SWAP1 POP SWAP2 SWAP1 POP JUMP JUMPDEST PUSH1 0x0 PUSH1 0x20 DUP3 ADD SWAP1 POP DUP2 DUP2 SUB PUSH1 0x0 DUP4 ADD MSTORE PUSH2 0x7D7 DUP2 PUSH2 0x79B JUMP JUMPDEST SWAP1 POP SWAP2 SWAP1 POP JUMP JUMPDEST PUSH32 0x4E6F2066756E647320746F206469766572736966790000000000000000000000 PUSH1 0x0 DUP3 ADD MSTORE POP JUMP JUMPDEST PUSH1 0x0 PUSH2 0x814 PUSH1 0x15 DUP4 PUSH2 0x761 JUMP JUMPDEST SWAP2 POP PUSH2 0x81F DUP3 PUSH2 0x7DE JUMP JUMPDEST PUSH1 0x20 DUP3 ADD SWAP1 POP SWAP2 SWAP1 POP JUMP JUMPDEST PUSH1 0x0 PUSH1 0x20 DUP3 ADD SWAP1 POP DUP2 DUP2 SUB PUSH1 0x0 DUP4 ADD MSTORE PUSH2 0x843 DUP2 PUSH2 0x807 JUMP JUMPDEST SWAP1 POP SWAP2 SWAP1 POP JUMP JUMPDEST PUSH32 0x4E487B7100000000000000000000000000000000000000000000000000000000 PUSH1 0x0 MSTORE PUSH1 0x32 PUSH1 0x4 MSTORE PUSH1 0x24 PUSH1 0x0 REVERT JUMPDEST PUSH32 0x4E487B7100000000000000000000000000000000000000000000000000000000 PUSH1 0x0 MSTORE PUSH1 0x11 PUSH1 0x4 MSTORE PUSH1 0x24 PUSH1 0x0 REVERT JUMPDEST PUSH1 0x0 PUSH2 0x8B3 DUP3 PUSH2 0x55C JUMP JUMPDEST SWAP2 POP PUSH2 0x8BE DUP4 PUSH2 0x55C JUMP JUMPDEST SWAP3 POP DUP3 DUP3 ADD SWAP1 POP DUP1 DUP3 GT ISZERO PUSH2 0x8D6 JUMPI PUSH2 0x8D5 PUSH2 0x879 JUMP JUMPDEST JUMPDEST SWAP3 SWAP2 POP POP JUMP JUMPDEST PUSH1 0x0 PUSH2 0x8E7 DUP3 PUSH2 0x55C JUMP JUMPDEST SWAP2 POP PUSH32 0xFFFFFFFFFFFFFFFFFFFFFFFFFFFFFFFFFFFFFFFFFFFFFFFFFFFFFFFFFFFFFFFF DUP3 SUB PUSH2 0x919 JUMPI PUSH2 0x918 PUSH2 0x879 JUMP JUMPDEST JUMPDEST PUSH1 0x1 DUP3 ADD SWAP1 POP SWAP2 SWAP1 POP JUMP JUMPDEST PUSH32 0x50657263656E7461676573206D75737420746F74616C20313030000000000000 PUSH1 0x0 DUP3 ADD MSTORE POP JUMP JUMPDEST PUSH1 0x0 PUSH2 0x95A PUSH1 0x1A DUP4 PUSH2 0x761 JUMP JUMPDEST SWAP2 POP PUSH2 0x965 DUP3 PUSH2 0x924 JUMP JUMPDEST PUSH1 0x20 DUP3 ADD SWAP1 POP SWAP2 SWAP1 POP JUMP JUMPDEST PUSH1 0x0 PUSH1 0x20 DUP3 ADD SWAP1 POP DUP2 DUP2 SUB PUSH1 0x0 DUP4 ADD MSTORE PUSH2 0x989 DUP2 PUSH2 0x94D JUMP JUMPDEST SWAP1 POP SWAP2 SWAP1 POP JUMP JUMPDEST PUSH1 0x0 PUSH2 0x99B DUP3 PUSH2 0x55C JUMP JUMPDEST SWAP2 POP PUSH2 0x9A6 DUP4 PUSH2 0x55C JUMP JUMPDEST SWAP3 POP DUP3 DUP3 MUL PUSH2 0x9B4 DUP2 PUSH2 0x55C JUMP JUMPDEST SWAP2 POP DUP3 DUP3 DIV DUP5 EQ DUP4 ISZERO OR PUSH2 0x9CB JUMPI PUSH2 0x9CA PUSH2 0x879 JUMP JUMPDEST JUMPDEST POP SWAP3 SWAP2 POP POP JUMP JUMPDEST PUSH32 0x4E487B7100000000000000000000000000000000000000000000000000000000 PUSH1 0x0 MSTORE PUSH1 0x12 PUSH1 0x4 MSTORE PUSH1 0x24 PUSH1 0x0 REVERT JUMPDEST PUSH1 0x0 PUSH2 0xA0C DUP3 PUSH2 0x55C JUMP JUMPDEST SWAP2 POP PUSH2 0xA17 DUP4 PUSH2 0x55C JUMP JUMPDEST SWAP3 POP DUP3 PUSH2 0xA27 JUMPI PUSH2 0xA26 PUSH2 0x9D2 JUMP JUMPDEST JUMPDEST DUP3 DUP3 DIV SWAP1 POP SWAP3 SWAP2 POP POP JUMP JUMPDEST PUSH2 0xA3B DUP2 PUSH2 0x5BA JUMP JUMPDEST DUP3 MSTORE POP POP JUMP JUMPDEST PUSH1 0x0 PUSH1 0x40 DUP3 ADD SWAP1 POP PUSH2 0xA56 PUSH1 0x0 DUP4 ADD DUP6 PUSH2 0xA32 JUMP JUMPDEST PUSH2 0xA63 PUSH1 0x20 DUP4 ADD DUP5 PUSH2 0x566 JUMP JUMPDEST SWAP4 SWAP3 POP POP POP JUMP JUMPDEST PUSH1 0x0 DUP2 ISZERO ISZERO SWAP1 POP SWAP2 SWAP1 POP JUMP JUMPDEST PUSH2 0xA7F DUP2 PUSH2 0xA6A JUMP JUMPDEST DUP2 EQ PUSH2 0xA8A JUMPI PUSH1 0x0 DUP1 REVERT JUMPDEST POP JUMP JUMPDEST PUSH1 0x0 DUP2 MLOAD SWAP1 POP PUSH2 0xA9C DUP2 PUSH2 0xA76 JUMP JUMPDEST SWAP3 SWAP2 POP POP JUMP JUMPDEST PUSH1 0x0 PUSH1 0x20 DUP3 DUP5 SUB SLT ISZERO PUSH2 0xAB8 JUMPI PUSH2 0xAB7 PUSH2 0x590 JUMP JUMPDEST JUMPDEST PUSH1 0x0 PUSH2 0xAC6 DUP5 DUP3 DUP6 ADD PUSH2 0xA8D JUMP JUMPDEST SWAP2 POP POP SWAP3 SWAP2 POP POP JUMP JUMPDEST PUSH32 0x5472616E73666572206661696C65640000000000000000000000000000000000 PUSH1 0x0 DUP3 ADD MSTORE POP JUMP JUMPDEST PUSH1 0x0 PUSH2 0xB05 PUSH1 0xF DUP4 PUSH2 0x761 JUMP JUMPDEST SWAP2 POP PUSH2 0xB10 DUP3 PUSH2 0xACF JUMP JUMPDEST PUSH1 0x20 DUP3 ADD SWAP1 POP SWAP2 SWAP1 POP JUMP JUMPDEST PUSH1 0x0 PUSH1 0x20 DUP3 ADD SWAP1 POP DUP2 DUP2 SUB PUSH1 0x0 DUP4 ADD MSTORE PUSH2 0xB34 DUP2 PUSH2 0xAF8 JUMP JUMPDEST SWAP1 POP SWAP2 SWAP1 POP JUMP JUMPDEST PUSH1 0x0 DUP3 DUP3 MSTORE PUSH1 0x20 DUP3 ADD SWAP1 POP SWAP3 SWAP2 POP POP JUMP JUMPDEST PUSH1 0x0 DUP2 SWAP1 POP SWAP2 SWAP1 POP JUMP JUMPDEST PUSH2 0xB5F DUP2 PUSH2 0x5BA JUMP JUMPDEST DUP3 MSTORE POP POP JUMP JUMPDEST PUSH1 0x0 PUSH2 0xB71 DUP4 DUP4 PUSH2 0xB56 JUMP JUMPDEST PUSH1 0x20 DUP4 ADD SWAP1 POP SWAP3 SWAP2 POP POP JUMP JUMPDEST PUSH1 0x0 PUSH2 0xB8C PUSH1 0x20 DUP5 ADD DUP5 PUSH2 0x5E3 JUMP JUMPDEST SWAP1 POP SWAP3 SWAP2 POP POP JUMP JUMPDEST PUSH1 0x0 PUSH1 0x20 DUP3 ADD SWAP1 POP SWAP2 SWAP1 POP JUMP JUMPDEST PUSH1 0x0 PUSH2 0xBAD DUP4 DUP6 PUSH2 0xB3B JUMP JUMPDEST SWAP4 POP PUSH2 0xBB8 DUP3 PUSH2 0xB4C JUMP JUMPDEST DUP1 PUSH1 0x0 JUMPDEST DUP6 DUP2 LT ISZERO PUSH2 0xBF1 JUMPI PUSH2 0xBCE DUP3 DUP5 PUSH2 0xB7D JUMP JUMPDEST PUSH2 0xBD8 DUP9 DUP3 PUSH2 0xB65 JUMP JUMPDEST SWAP8 POP PUSH2 0xBE3 DUP4 PUSH2 0xB94 JUMP JUMPDEST SWAP3 POP POP PUSH1 0x1 DUP2 ADD SWAP1 POP PUSH2 0xBBC JUMP JUMPDEST POP DUP6 SWAP3 POP POP POP SWAP4 SWAP3 POP POP POP JUMP JUMPDEST PUSH1 0x0 DUP3 DUP3 MSTORE PUSH1 0x20 DUP3 ADD SWAP1 POP SWAP3 SWAP2 POP POP JUMP JUMPDEST PUSH1 0x0 DUP1 REVERT JUMPDEST DUP3 DUP2 DUP4 CALLDATACOPY POP POP POP JUMP JUMPDEST PUSH1 0x0 PUSH2 0xC29 DUP4 DUP6 PUSH2 0xBFE JUMP JUMPDEST SWAP4 POP PUSH32 0x7FFFFFFFFFFFFFFFFFFFFFFFFFFFFFFFFFFFFFFFFFFFFFFFFFFFFFFFFFFFFFF DUP4 GT ISZERO PUSH2 0xC5C JUMPI PUSH2 0xC5B PUSH2 0xC0F JUMP JUMPDEST JUMPDEST PUSH1 0x20 DUP4 MUL SWAP3 POP PUSH2 0xC6D DUP4 DUP6 DUP5 PUSH2 0xC14 JUMP JUMPDEST DUP3 DUP5 ADD SWAP1 POP SWAP4 SWAP3 POP POP POP JUMP JUMPDEST PUSH1 0x0 PUSH1 0x40 DUP3 ADD SWAP1 POP DUP2 DUP2 SUB PUSH1 0x0 DUP4 ADD MSTORE PUSH2 0xC94 DUP2 DUP7 DUP9 PUSH2 0xBA1 JUMP JUMPDEST SWAP1 POP DUP2 DUP2 SUB PUSH1 0x20 DUP4 ADD MSTORE PUSH2 0xCA9 DUP2 DUP5 DUP7 PUSH2 0xC1D JUMP JUMPDEST SWAP1 POP SWAP6 SWAP5 POP POP POP POP POP JUMP JUMPDEST PUSH32 0x4465706F73697420616D6F756E74206D75737420626520677265617465722074 PUSH1 0x0 DUP3 ADD MSTORE PUSH32 0x68616E207A65726F000000000000000000000000000000000000000000000000 PUSH1 0x20 DUP3 ADD MSTORE POP JUMP JUMPDEST PUSH1 0x0 PUSH2 0xD10 PUSH1 0x28 DUP4 PUSH2 0x761 JUMP JUMPDEST SWAP2 POP PUSH2 0xD1B DUP3 PUSH2 0xCB4 JUMP JUMPDEST PUSH1 0x40 DUP3 ADD SWAP1 POP SWAP2 SWAP1 POP JUMP JUMPDEST PUSH1 0x0 PUSH1 0x20 DUP3 ADD SWAP1 POP DUP2 DUP2 SUB PUSH1 0x0 DUP4 ADD MSTORE PUSH2 0xD3F DUP2 PUSH2 0xD03 JUMP JUMPDEST SWAP1 POP SWAP2 SWAP1 POP JUMP INVALID LOG2 PUSH5 0x6970667358 0x22 SLT KECCAK256 0xD9 MSTORE ADDMOD MUL 0xC8 0x2C MUL PUSH21 0xD24EF7FD87423052F71953384CADB4E80669459FA9 LOG4 BASEFEE BYTE PUSH5 0x736F6C6343 STOP ADDMOD EQ STOP CALLER "},"methodIdentifiers":{"deposit()":"d0e30db0","diversify(address[],uint256[])":"846fe001","getBalance()":"12065fe0","userBalances(address)":"26224c64"}}}}}